{
  "contractName": "NFT",
  "abi": [
    {
      "inputs": [
        {
          "internalType": "string",
          "name": "_name",
          "type": "string"
        },
        {
          "internalType": "string",
          "name": "_symbol",
          "type": "string"
        },
        {
          "internalType": "string",
          "name": "_initBaseURI",
          "type": "string"
        },
        {
          "internalType": "address[]",
          "name": "_teamAddresses",
          "type": "address[]"
        }
      ],
      "stateMutability": "nonpayable",
      "type": "constructor"
    },
    {
      "anonymous": false,
      "inputs": [
        {
          "indexed": true,
          "internalType": "address",
          "name": "owner",
          "type": "address"
        },
        {
          "indexed": true,
          "internalType": "address",
          "name": "approved",
          "type": "address"
        },
        {
          "indexed": true,
          "internalType": "uint256",
          "name": "tokenId",
          "type": "uint256"
        }
      ],
      "name": "Approval",
      "type": "event"
    },
    {
      "anonymous": false,
      "inputs": [
        {
          "indexed": true,
          "internalType": "address",
          "name": "owner",
          "type": "address"
        },
        {
          "indexed": true,
          "internalType": "address",
          "name": "operator",
          "type": "address"
        },
        {
          "indexed": false,
          "internalType": "bool",
          "name": "approved",
          "type": "bool"
        }
      ],
      "name": "ApprovalForAll",
      "type": "event"
    },
    {
      "anonymous": false,
      "inputs": [
        {
          "indexed": true,
          "internalType": "address",
          "name": "previousOwner",
          "type": "address"
        },
        {
          "indexed": true,
          "internalType": "address",
          "name": "newOwner",
          "type": "address"
        }
      ],
      "name": "OwnershipTransferred",
      "type": "event"
    },
    {
      "anonymous": false,
      "inputs": [
        {
          "indexed": true,
          "internalType": "address",
          "name": "from",
          "type": "address"
        },
        {
          "indexed": true,
          "internalType": "address",
          "name": "to",
          "type": "address"
        },
        {
          "indexed": true,
          "internalType": "uint256",
          "name": "tokenId",
          "type": "uint256"
        }
      ],
      "name": "Transfer",
      "type": "event"
    },
    {
      "inputs": [
        {
          "internalType": "address",
          "name": "",
          "type": "address"
        }
      ],
      "name": "addressMintedBalance",
      "outputs": [
        {
          "internalType": "uint16",
          "name": "",
          "type": "uint16"
        }
      ],
      "stateMutability": "view",
      "type": "function",
      "constant": true
    },
    {
      "inputs": [
        {
          "internalType": "address",
          "name": "",
          "type": "address"
        },
        {
          "internalType": "uint8",
          "name": "",
          "type": "uint8"
        }
      ],
      "name": "addressMintedBalanceByType",
      "outputs": [
        {
          "internalType": "uint16",
          "name": "",
          "type": "uint16"
        }
      ],
      "stateMutability": "view",
      "type": "function",
      "constant": true
    },
    {
      "inputs": [
        {
          "internalType": "address",
          "name": "to",
          "type": "address"
        },
        {
          "internalType": "uint256",
          "name": "tokenId",
          "type": "uint256"
        }
      ],
      "name": "approve",
      "outputs": [],
      "stateMutability": "nonpayable",
      "type": "function"
    },
    {
      "inputs": [
        {
          "internalType": "address",
          "name": "owner",
          "type": "address"
        }
      ],
      "name": "balanceOf",
      "outputs": [
        {
          "internalType": "uint256",
          "name": "",
          "type": "uint256"
        }
      ],
      "stateMutability": "view",
      "type": "function",
      "constant": true
    },
    {
      "inputs": [],
      "name": "baseURI",
      "outputs": [
        {
          "internalType": "string",
          "name": "",
          "type": "string"
        }
      ],
      "stateMutability": "view",
      "type": "function",
      "constant": true
    },
    {
      "inputs": [],
      "name": "cost",
      "outputs": [
        {
          "internalType": "uint256",
          "name": "",
          "type": "uint256"
        }
      ],
      "stateMutability": "view",
      "type": "function",
      "constant": true
    },
    {
      "inputs": [
        {
          "internalType": "uint256",
          "name": "",
          "type": "uint256"
        }
      ],
      "name": "currentSupplyPerType",
      "outputs": [
        {
          "internalType": "uint16",
          "name": "",
          "type": "uint16"
        }
      ],
      "stateMutability": "view",
      "type": "function",
      "constant": true
    },
    {
      "inputs": [
        {
          "internalType": "uint256",
          "name": "tokenId",
          "type": "uint256"
        }
      ],
      "name": "getApproved",
      "outputs": [
        {
          "internalType": "address",
          "name": "",
          "type": "address"
        }
      ],
      "stateMutability": "view",
      "type": "function",
      "constant": true
    },
    {
      "inputs": [],
      "name": "initialSupplyPerType",
      "outputs": [
        {
          "internalType": "uint16",
          "name": "",
          "type": "uint16"
        }
      ],
      "stateMutability": "view",
      "type": "function",
      "constant": true
    },
    {
      "inputs": [
        {
          "internalType": "address",
          "name": "owner",
          "type": "address"
        },
        {
          "internalType": "address",
          "name": "operator",
          "type": "address"
        }
      ],
      "name": "isApprovedForAll",
      "outputs": [
        {
          "internalType": "bool",
          "name": "",
          "type": "bool"
        }
      ],
      "stateMutability": "view",
      "type": "function",
      "constant": true
    },
    {
      "inputs": [],
      "name": "maxMintAmount",
      "outputs": [
        {
          "internalType": "uint16",
          "name": "",
          "type": "uint16"
        }
      ],
      "stateMutability": "view",
      "type": "function",
      "constant": true
    },
    {
      "inputs": [],
      "name": "maxSupply",
      "outputs": [
        {
          "internalType": "uint16",
          "name": "",
          "type": "uint16"
        }
      ],
      "stateMutability": "view",
      "type": "function",
      "constant": true
    },
    {
      "inputs": [],
      "name": "maxSupplyPerType",
      "outputs": [
        {
          "internalType": "uint16",
          "name": "",
          "type": "uint16"
        }
      ],
      "stateMutability": "view",
      "type": "function",
      "constant": true
    },
    {
      "inputs": [],
      "name": "nTypes",
      "outputs": [
        {
          "internalType": "uint8",
          "name": "",
          "type": "uint8"
        }
      ],
      "stateMutability": "view",
      "type": "function",
      "constant": true
    },
    {
      "inputs": [],
      "name": "name",
      "outputs": [
        {
          "internalType": "string",
          "name": "",
          "type": "string"
        }
      ],
      "stateMutability": "view",
      "type": "function",
      "constant": true
    },
    {
      "inputs": [],
      "name": "nftPerAddressLimit",
      "outputs": [
        {
          "internalType": "uint16",
          "name": "",
          "type": "uint16"
        }
      ],
      "stateMutability": "view",
      "type": "function",
      "constant": true
    },
    {
      "inputs": [],
      "name": "onlyWhitelist",
      "outputs": [
        {
          "internalType": "bool",
          "name": "",
          "type": "bool"
        }
      ],
      "stateMutability": "view",
      "type": "function",
      "constant": true
    },
    {
      "inputs": [],
      "name": "owner",
      "outputs": [
        {
          "internalType": "address",
          "name": "",
          "type": "address"
        }
      ],
      "stateMutability": "view",
      "type": "function",
      "constant": true
    },
    {
      "inputs": [
        {
          "internalType": "uint256",
          "name": "tokenId",
          "type": "uint256"
        }
      ],
      "name": "ownerOf",
      "outputs": [
        {
          "internalType": "address",
          "name": "",
          "type": "address"
        }
      ],
      "stateMutability": "view",
      "type": "function",
      "constant": true
    },
    {
      "inputs": [],
      "name": "paused",
      "outputs": [
        {
          "internalType": "bool",
          "name": "",
          "type": "bool"
        }
      ],
      "stateMutability": "view",
      "type": "function",
      "constant": true
    },
    {
      "inputs": [],
      "name": "presaleLimit",
      "outputs": [
        {
          "internalType": "uint8",
          "name": "",
          "type": "uint8"
        }
      ],
      "stateMutability": "view",
      "type": "function",
      "constant": true
    },
    {
      "inputs": [],
      "name": "renounceOwnership",
      "outputs": [],
      "stateMutability": "nonpayable",
      "type": "function"
    },
    {
      "inputs": [
        {
          "internalType": "address",
          "name": "from",
          "type": "address"
        },
        {
          "internalType": "address",
          "name": "to",
          "type": "address"
        },
        {
          "internalType": "uint256",
          "name": "tokenId",
          "type": "uint256"
        }
      ],
      "name": "safeTransferFrom",
      "outputs": [],
      "stateMutability": "nonpayable",
      "type": "function"
    },
    {
      "inputs": [
        {
          "internalType": "address",
          "name": "from",
          "type": "address"
        },
        {
          "internalType": "address",
          "name": "to",
          "type": "address"
        },
        {
          "internalType": "uint256",
          "name": "tokenId",
          "type": "uint256"
        },
        {
          "internalType": "bytes",
          "name": "_data",
          "type": "bytes"
        }
      ],
      "name": "safeTransferFrom",
      "outputs": [],
      "stateMutability": "nonpayable",
      "type": "function"
    },
    {
      "inputs": [
        {
          "internalType": "address",
          "name": "operator",
          "type": "address"
        },
        {
          "internalType": "bool",
          "name": "approved",
          "type": "bool"
        }
      ],
      "name": "setApprovalForAll",
      "outputs": [],
      "stateMutability": "nonpayable",
      "type": "function"
    },
    {
      "inputs": [
        {
          "internalType": "bytes4",
          "name": "interfaceId",
          "type": "bytes4"
        }
      ],
      "name": "supportsInterface",
      "outputs": [
        {
          "internalType": "bool",
          "name": "",
          "type": "bool"
        }
      ],
      "stateMutability": "view",
      "type": "function",
      "constant": true
    },
    {
      "inputs": [],
      "name": "symbol",
      "outputs": [
        {
          "internalType": "string",
          "name": "",
          "type": "string"
        }
      ],
      "stateMutability": "view",
      "type": "function",
      "constant": true
    },
    {
      "inputs": [
        {
          "internalType": "uint256",
          "name": "",
          "type": "uint256"
        }
      ],
      "name": "teamAddresses",
      "outputs": [
        {
          "internalType": "address",
          "name": "",
          "type": "address"
        }
      ],
      "stateMutability": "view",
      "type": "function",
      "constant": true
    },
    {
      "inputs": [
        {
          "internalType": "uint256",
          "name": "index",
          "type": "uint256"
        }
      ],
      "name": "tokenByIndex",
      "outputs": [
        {
          "internalType": "uint256",
          "name": "",
          "type": "uint256"
        }
      ],
      "stateMutability": "view",
      "type": "function",
      "constant": true
    },
    {
      "inputs": [
        {
          "internalType": "address",
          "name": "owner",
          "type": "address"
        },
        {
          "internalType": "uint256",
          "name": "index",
          "type": "uint256"
        }
      ],
      "name": "tokenOfOwnerByIndex",
      "outputs": [
        {
          "internalType": "uint256",
          "name": "",
          "type": "uint256"
        }
      ],
      "stateMutability": "view",
      "type": "function",
      "constant": true
    },
    {
      "inputs": [
        {
          "internalType": "uint256",
          "name": "tokenId",
          "type": "uint256"
        }
      ],
      "name": "tokenURI",
      "outputs": [
        {
          "internalType": "string",
          "name": "",
          "type": "string"
        }
      ],
      "stateMutability": "view",
      "type": "function",
      "constant": true
    },
    {
      "inputs": [],
      "name": "totalSupply",
      "outputs": [
        {
          "internalType": "uint256",
          "name": "",
          "type": "uint256"
        }
      ],
      "stateMutability": "view",
      "type": "function",
      "constant": true
    },
    {
      "inputs": [
        {
          "internalType": "address",
          "name": "from",
          "type": "address"
        },
        {
          "internalType": "address",
          "name": "to",
          "type": "address"
        },
        {
          "internalType": "uint256",
          "name": "tokenId",
          "type": "uint256"
        }
      ],
      "name": "transferFrom",
      "outputs": [],
      "stateMutability": "nonpayable",
      "type": "function"
    },
    {
      "inputs": [
        {
          "internalType": "address",
          "name": "newOwner",
          "type": "address"
        }
      ],
      "name": "transferOwnership",
      "outputs": [],
      "stateMutability": "nonpayable",
      "type": "function"
    },
    {
      "inputs": [
        {
          "internalType": "uint256",
          "name": "",
          "type": "uint256"
        }
      ],
      "name": "whitelistedAddresses",
      "outputs": [
        {
          "internalType": "address",
          "name": "",
          "type": "address"
        }
      ],
      "stateMutability": "view",
      "type": "function",
      "constant": true
    },
    {
      "inputs": [
        {
          "internalType": "uint16",
          "name": "range",
          "type": "uint16"
        }
      ],
      "name": "getRandom",
      "outputs": [
        {
          "internalType": "uint16",
          "name": "",
          "type": "uint16"
        }
      ],
      "stateMutability": "view",
      "type": "function",
      "constant": true
    },
    {
      "inputs": [
        {
          "internalType": "uint8",
          "name": "_type",
          "type": "uint8"
        }
      ],
      "name": "getRandomOfType",
      "outputs": [
        {
          "internalType": "uint16",
          "name": "",
          "type": "uint16"
        }
      ],
      "stateMutability": "view",
      "type": "function",
      "constant": true
    },
    {
      "inputs": [
        {
          "internalType": "uint16",
          "name": "_mintAmount",
          "type": "uint16"
        },
        {
          "internalType": "uint8",
          "name": "_type",
          "type": "uint8"
        }
      ],
      "name": "mintType",
      "outputs": [],
      "stateMutability": "payable",
      "type": "function",
      "payable": true
    },
    {
      "inputs": [
        {
          "internalType": "uint16",
          "name": "_mintAmount",
          "type": "uint16"
        }
      ],
      "name": "mint",
      "outputs": [],
      "stateMutability": "payable",
      "type": "function",
      "payable": true
    },
    {
      "inputs": [],
      "name": "resumePresale",
      "outputs": [],
      "stateMutability": "nonpayable",
      "type": "function"
    },
    {
      "inputs": [],
      "name": "startMainsale",
      "outputs": [],
      "stateMutability": "nonpayable",
      "type": "function"
    },
    {
      "inputs": [
        {
          "internalType": "bool",
          "name": "_state",
          "type": "bool"
        }
      ],
      "name": "pause",
      "outputs": [],
      "stateMutability": "nonpayable",
      "type": "function"
    },
    {
      "inputs": [
        {
          "internalType": "uint256",
          "name": "tokenId",
          "type": "uint256"
        }
      ],
      "name": "tokenURIByID",
      "outputs": [
        {
          "internalType": "string",
          "name": "",
          "type": "string"
        }
      ],
      "stateMutability": "view",
      "type": "function",
      "constant": true
    },
    {
      "inputs": [
        {
          "internalType": "address",
          "name": "_user",
          "type": "address"
        }
      ],
      "name": "walletOfUser",
      "outputs": [
        {
          "internalType": "uint16[]",
          "name": "",
          "type": "uint16[]"
        }
      ],
      "stateMutability": "view",
      "type": "function",
      "constant": true
    },
    {
      "inputs": [
        {
          "internalType": "bool",
          "name": "_state",
          "type": "bool"
        }
      ],
      "name": "restrictToWhitelisted",
      "outputs": [],
      "stateMutability": "nonpayable",
      "type": "function"
    },
    {
      "inputs": [],
      "name": "resetWhitelist",
      "outputs": [],
      "stateMutability": "nonpayable",
      "type": "function"
    },
    {
      "inputs": [
        {
          "internalType": "address",
          "name": "_user",
          "type": "address"
        }
      ],
      "name": "removeWhitelistedUser",
      "outputs": [],
      "stateMutability": "nonpayable",
      "type": "function"
    },
    {
      "inputs": [
        {
          "internalType": "address[]",
          "name": "_teamAddresses",
          "type": "address[]"
        }
      ],
      "name": "setTeamAddresses",
      "outputs": [],
      "stateMutability": "nonpayable",
      "type": "function"
    },
    {
      "inputs": [
        {
          "internalType": "address[]",
          "name": "_users",
          "type": "address[]"
        }
      ],
      "name": "whitelistUsers",
      "outputs": [],
      "stateMutability": "nonpayable",
      "type": "function"
    },
    {
      "inputs": [
        {
          "internalType": "address",
          "name": "_user",
          "type": "address"
        }
      ],
      "name": "whitelistUser",
      "outputs": [],
      "stateMutability": "nonpayable",
      "type": "function"
    },
    {
      "inputs": [],
      "name": "withdraw",
      "outputs": [],
      "stateMutability": "payable",
      "type": "function",
      "payable": true
    },
    {
      "inputs": [
        {
          "internalType": "address payable",
          "name": "_to",
          "type": "address"
        },
        {
          "internalType": "uint256",
          "name": "_amount",
          "type": "uint256"
        }
      ],
      "name": "transfer",
      "outputs": [],
      "stateMutability": "nonpayable",
      "type": "function"
    }
  ],
  "bytecode": "0x66b1a2bc2ec50000600d55668e1bc9bf040000600e819055600f556010805464ffffffffff19166203e80c17908190556102006040526101009081900461ffff16608081815260a082905260c082905260e0829052918190526101208190526101408190526101608190526101808190526101a08190526101c08190526101e0526200009090601190600c62000263565b50601054620000ad9060ff811690610100900461ffff1662000402565b601280546801010a00030000000061ffff9390931663ffffffff1990911617621400001765ffffffffffff60201b1916919091179055348015620000f057600080fd5b5060405162003a9638038062003a9683398101604081905262000113916200050d565b8351849084906200012c90600090602085019062000300565b5080516200014290600190602084019062000300565b5050506200015f620001596200020d60201b60201c565b62000211565b81516200017490600c90602085019062000300565b5080516200018a90600b9060208401906200037d565b5060005b60105460ff908116908216101562000202576010546301000000900461ffff16601160ff8316600c8110620001c757620001c762000649565b601091828204019190066002026101000a81548161ffff021916908361ffff1602179055508080620001f9906200065f565b9150506200018e565b5050505050620006bf565b3390565b600a80546001600160a01b038381166001600160a01b0319831681179093556040519116919082907f8be0079c531659141344cd1fd0a4f28419497f9722a3daafe3b4186f6b6457e090600090a35050565b600183019183908215620002ee5791602002820160005b83821115620002bc57835183826101000a81548161ffff021916908361ffff16021790555092602001926002016020816001010492830192600103026200027a565b8015620002ec5782816101000a81549061ffff0219169055600201602081600101049283019260010302620002bc565b505b50620002fc929150620003d5565b5090565b8280546200030e9062000682565b90600052602060002090601f016020900481019282620003325760008555620002ee565b82601f106200034d57805160ff1916838001178555620002ee565b82800160010185558215620002ee579182015b82811115620002ee57825182559160200191906001019062000360565b828054828255906000526020600020908101928215620002ee579160200282015b82811115620002ee57825182546001600160a01b0319166001600160a01b039091161782556020909201916001909101906200039e565b5b80821115620002fc5760008155600101620003d6565b634e487b7160e01b600052601160045260246000fd5b600061ffff80831681851681830481118215151615620004265762000426620003ec565b02949350505050565b634e487b7160e01b600052604160045260246000fd5b604051601f8201601f191681016001600160401b03811182821017156200047057620004706200042f565b604052919050565b600082601f8301126200048a57600080fd5b81516001600160401b03811115620004a657620004a66200042f565b6020620004bc601f8301601f1916820162000445565b8281528582848701011115620004d157600080fd5b60005b83811015620004f1578581018301518282018401528201620004d4565b83811115620005035760008385840101525b5095945050505050565b600080600080608085870312156200052457600080fd5b84516001600160401b03808211156200053c57600080fd5b6200054a8883890162000478565b95506020915081870151818111156200056257600080fd5b6200057089828a0162000478565b9550506040870151818111156200058657600080fd5b6200059489828a0162000478565b945050606087015181811115620005aa57600080fd5b8701601f81018913620005bc57600080fd5b805182811115620005d157620005d16200042f565b8060051b9250620005e484840162000445565b818152928201840192848101908b851115620005ff57600080fd5b928501925b848410156200063957835192506001600160a01b0383168314620006285760008081fd5b828252928501929085019062000604565b989b979a50959850505050505050565b634e487b7160e01b600052603260045260246000fd5b600060ff821660ff811415620006795762000679620003ec565b60010192915050565b600181811c908216806200069757607f821691505b60208210811415620006b957634e487b7160e01b600052602260045260246000fd5b50919050565b6133c780620006cf6000396000f3fe6080604052600436106102ff5760003560e01c80635c975abb11610190578063b547555f116100dc578063d50d3af511610095578063e985e9c51161006f578063e985e9c514610918578063edec5f2714610961578063f2fde38b14610981578063fe625fb6146109a157600080fd5b8063d50d3af5146108c3578063d5abeb01146108e3578063de14a38b146108fe57600080fd5b8063b547555f14610800578063b7b1b8e914610820578063b88d4fde14610840578063ba4e5c4914610860578063ba7d2c7614610880578063c87b56dd146108a357600080fd5b80638da5cb5b11610149578063a67ba7ed11610123578063a67ba7ed1461077d578063a88e099614610792578063a9059cbb146107b3578063b20060d5146107d357600080fd5b80638da5cb5b1461072a57806395d89b4114610748578063a22cb4651461075d57600080fd5b80635c975abb1461067f5780636352211e146106a05780636c0360eb146106c057806370a08231146106d5578063715018a6146106f55780637a490e031461070a57600080fd5b80632419217e1161024f5780634a4c560d116102085780634f6ccce7116101e25780634f6ccce7146105ff578063525b3fe31461061f57806354f63ee5146106555780635909865a1461066a57600080fd5b80634a4c560d1461059d5780634ae3c5dc146105bd5780634f26257b146105df57600080fd5b80632419217e14610502578063245a3bce146105225780632f745c59146105425780633c74aab4146105625780633ccfd60b1461057557806342842e0e1461057d57600080fd5b80630a0166b1116102bc57806318cae2691161029657806318cae2691461047d578063239c70ae146104ae57806323b872dd146104cf57806323cf0a22146104ef57600080fd5b80630a0166b11461040857806313faede61461044457806318160ddd1461046857600080fd5b806301ffc9a71461030457806302329a2914610339578063064ff1291461035b57806306fdde031461038e578063081812fc146103b0578063095ea7b3146103e8575b600080fd5b34801561031057600080fd5b5061032461031f366004612b5d565b6109c1565b60405190151581526020015b60405180910390f35b34801561034557600080fd5b50610359610354366004612b8f565b6109ec565b005b34801561036757600080fd5b5060105461037b90610100900461ffff1681565b60405161ffff9091168152602001610330565b34801561039a57600080fd5b506103a3610a43565b6040516103309190612c02565b3480156103bc57600080fd5b506103d06103cb366004612c15565b610ad5565b6040516001600160a01b039091168152602001610330565b3480156103f457600080fd5b50610359610403366004612c43565b610b5d565b34801561041457600080fd5b5061037b610423366004612c80565b601660209081526000928352604080842090915290825290205461ffff1681565b34801561045057600080fd5b5061045a600f5481565b604051908152602001610330565b34801561047457600080fd5b5060085461045a565b34801561048957600080fd5b5061037b610498366004612cb5565b60156020526000908152604090205461ffff1681565b3480156104ba57600080fd5b5060125461037b9062010000900461ffff1681565b3480156104db57600080fd5b506103596104ea366004612cd2565b610c73565b6103596104fd366004612d25565b610ca4565b34801561050e57600080fd5b506103d061051d366004612c15565b610eb5565b34801561052e57600080fd5b5061037b61053d366004612d25565b610edf565b34801561054e57600080fd5b5061045a61055d366004612c43565b610eea565b610359610570366004612d40565b610f80565b6103596114a6565b34801561058957600080fd5b50610359610598366004612cd2565b611536565b3480156105a957600080fd5b506103596105b8366004612cb5565b611551565b3480156105c957600080fd5b5060105461037b906301000000900461ffff1681565b3480156105eb57600080fd5b506103596105fa366004612b8f565b6115e2565b34801561060b57600080fd5b5061045a61061a366004612c15565b61162f565b34801561062b57600080fd5b50601254610643906601000000000000900460ff1681565b60405160ff9091168152602001610330565b34801561066157600080fd5b506103596116c2565b34801561067657600080fd5b50610359611715565b34801561068b57600080fd5b5060125461032490600160481b900460ff1681565b3480156106ac57600080fd5b506103d06106bb366004612c15565b6117ba565b3480156106cc57600080fd5b506103a3611831565b3480156106e157600080fd5b5061045a6106f0366004612cb5565b6118bf565b34801561070157600080fd5b50610359611946565b34801561071657600080fd5b5061037b610725366004612c15565b61197a565b34801561073657600080fd5b50600a546001600160a01b03166103d0565b34801561075457600080fd5b506103a36119a8565b34801561076957600080fd5b50610359610778366004612d5c565b6119b7565b34801561078957600080fd5b506103596119c2565b34801561079e57600080fd5b5060125461032490600160401b900460ff1681565b3480156107bf57600080fd5b506103596107ce366004612c43565b611a0b565b3480156107df57600080fd5b506107f36107ee366004612cb5565b611aa5565b6040516103309190612d88565b34801561080c57600080fd5b5061037b61081b366004612dd0565b611b63565b34801561082c57600080fd5b5061035961083b366004612cb5565b611cd0565b34801561084c57600080fd5b5061035961085b366004612e01565b611d1b565b34801561086c57600080fd5b506103d061087b366004612c15565b611d53565b34801561088c57600080fd5b5060125461037b90640100000000900461ffff1681565b3480156108af57600080fd5b506103a36108be366004612c15565b611d63565b3480156108cf57600080fd5b506103a36108de366004612c15565b611de6565b3480156108ef57600080fd5b5060125461037b9061ffff1681565b34801561090a57600080fd5b506010546106439060ff1681565b34801561092457600080fd5b50610324610933366004612ee1565b6001600160a01b03918216600090815260056020908152604080832093909416825291909152205460ff1690565b34801561096d57600080fd5b5061035961097c366004612f1a565b611e64565b34801561098d57600080fd5b5061035961099c366004612cb5565b611ed5565b3480156109ad57600080fd5b506103596109bc366004612f1a565b611f70565b60006001600160e01b0319821663780e9d6360e01b14806109e657506109e682611fa6565b92915050565b600a546001600160a01b03163314610a1f5760405162461bcd60e51b8152600401610a1690612f8f565b60405180910390fd5b60128054911515600160481b0269ff00000000000000000019909216919091179055565b606060008054610a5290612fc4565b80601f0160208091040260200160405190810160405280929190818152602001828054610a7e90612fc4565b8015610acb5780601f10610aa057610100808354040283529160200191610acb565b820191906000526020600020905b815481529060010190602001808311610aae57829003601f168201915b5050505050905090565b6000610ae082611ff6565b610b415760405162461bcd60e51b815260206004820152602c60248201527f4552433732313a20617070726f76656420717565727920666f72206e6f6e657860448201526b34b9ba32b73a103a37b5b2b760a11b6064820152608401610a16565b506000908152600460205260409020546001600160a01b031690565b6000610b68826117ba565b9050806001600160a01b0316836001600160a01b03161415610bd65760405162461bcd60e51b815260206004820152602160248201527f4552433732313a20617070726f76616c20746f2063757272656e74206f776e656044820152603960f91b6064820152608401610a16565b336001600160a01b0382161480610bf25750610bf28133610933565b610c645760405162461bcd60e51b815260206004820152603860248201527f4552433732313a20617070726f76652063616c6c6572206973206e6f74206f7760448201527f6e6572206e6f7220617070726f76656420666f7220616c6c00000000000000006064820152608401610a16565b610c6e8383612013565b505050565b610c7d3382612081565b610c995760405162461bcd60e51b8152600401610a1690612fff565b610c6e83838361216b565b601254600160481b900460ff1615610cf75760405162461bcd60e51b81526020600482015260166024820152751d1a194818dbdb9d1c9858dd081a5cc81c185d5cd95960521b6044820152606401610a16565b6000610d0260085490565b905060008261ffff1611610d585760405162461bcd60e51b815260206004820152601b60248201527f6e65656420746f206d696e74206174206c656173742031204e465400000000006044820152606401610a16565b60125461ffff6201000090910481169083161115610dc45760405162461bcd60e51b8152602060048201526024808201527f6d6178206d696e7420616d6f756e74207065722073657373696f6e20657863656044820152631959195960e21b6064820152608401610a16565b60125461ffff16610dd58383613066565b61ffff161115610e205760405162461bcd60e51b81526020600482015260166024820152751b585e08139195081b1a5b5a5d08195e18d95959195960521b6044820152606401610a16565b601054600090610e329060ff16612316565b90505b601054610100900461ffff1683601160ff8416600c8110610e5857610e5861308c565b601091828204019190066002029054906101000a900461ffff16610e7c9190613066565b61ffff161115610eab5780610e90816130a2565b601054909250610ea4915060ff16826130d8565b9050610e35565b610c6e8382610f80565b600b8181548110610ec557600080fd5b6000918252602090912001546001600160a01b0316905081565b60006109e682612316565b6000610ef5836118bf565b8210610f575760405162461bcd60e51b815260206004820152602b60248201527f455243373231456e756d657261626c653a206f776e657220696e646578206f7560448201526a74206f6620626f756e647360a81b6064820152608401610a16565b506001600160a01b03919091166000908152600660209081526040808320938352929052205490565b601254600160481b900460ff1615610fd35760405162461bcd60e51b81526020600482015260166024820152751d1a194818dbdb9d1c9858dd081a5cc81c185d5cd95960521b6044820152606401610a16565b6000610fde60085490565b905060008361ffff16116110345760405162461bcd60e51b815260206004820152601b60248201527f6e65656420746f206d696e74206174206c656173742031204e465400000000006044820152606401610a16565b60125461ffff62010000909104811690841611156110945760405162461bcd60e51b815260206004820181905260248201527f6d61782073657373696f6e206d696e7420616d6f756e742065786365656465646044820152606401610a16565b60125461ffff166110a58483613066565b61ffff1611156110f05760405162461bcd60e51b81526020600482015260166024820152751b585e08139195081b1a5b5a5d08195e18d95959195960521b6044820152606401610a16565b60105460ff908116908316106111485760405162461bcd60e51b815260206004820152601960248201527f5479706520494420697320302d313120696e636c7573697665000000000000006044820152606401610a16565b601054610100900461ffff1683601160ff8516600c811061116b5761116b61308c565b601091828204019190066002029054906101000a900461ffff1661118f9190613066565b61ffff1611156111e15760405162461bcd60e51b815260206004820152601e60248201527f6d6178204e465420666f722074686973207479706520657863656564656400006044820152606401610a16565b600a546001600160a01b0316331461134157601254600160401b900460ff161515600114156112eb573360009081526014602052604090205460ff166112695760405162461bcd60e51b815260206004820152601760248201527f75736572206973206e6f742077686974656c69737465640000000000000000006044820152606401610a16565b3360009081526015602052604090205460125461ffff91821691640100000000909104166112978583613066565b61ffff1611156112e95760405162461bcd60e51b815260206004820152601c60248201527f6d6178204e4654207065722061646472657373206578636565646564000000006044820152606401610a16565b505b8261ffff16600f546112fd91906130fa565b3410156113415760405162461bcd60e51b8152602060048201526012602482015271696e73756666696369656e742066756e647360701b6044820152606401610a16565b60008060015b8561ffff168161ffff161161149e5761135f85611b63565b336000908152601560205260408120805492955061ffff909216919061138483613119565b91906101000a81548161ffff021916908361ffff1602179055505060118560ff16600c81106113b5576113b561308c565b6010918282040191900660020281819054906101000a900461ffff16809291906113de90613119565b825461ffff91821661010093840a9081029083021990911617909255601054869350611411929190041660ff881661313b565b61141b9190613066565b91505b61142b8261ffff16611ff6565b1561147e578261143a81613119565b6010549094506114549150610100900461ffff1684613165565b60105461146d90610100900461ffff1660ff881661313b565b6114779190613066565b915061141e565b61148c338361ffff1661237e565b8061149681613119565b915050611347565b505050505050565b600a546001600160a01b031633146114d05760405162461bcd60e51b8152600401610a1690612f8f565b600b546000906114e09047613186565b905060005b600b5481101561153257611520600b82815481106115055761150561308c565b6000918252602090912001546001600160a01b031683611a0b565b8061152a8161319a565b9150506114e5565b5050565b610c6e83838360405180602001604052806000815250611d1b565b600a546001600160a01b0316331461157b5760405162461bcd60e51b8152600401610a1690612f8f565b6013805460018181019092557f66de8ffda797e3de9c05e8fc57b3bf0ec28a930d40b0d285d93c06501cf6a0900180546001600160a01b039093166001600160a01b031990931683179055600091825260146020526040909120805460ff19169091179055565b600a546001600160a01b0316331461160c5760405162461bcd60e51b8152600401610a1690612f8f565b60128054911515600160401b0268ff000000000000000019909216919091179055565b600061163a60085490565b821061169d5760405162461bcd60e51b815260206004820152602c60248201527f455243373231456e756d657261626c653a20676c6f62616c20696e646578206f60448201526b7574206f6620626f756e647360a01b6064820152608401610a16565b600882815481106116b0576116b061308c565b90600052602060002001549050919050565b600a546001600160a01b031633146116ec5760405162461bcd60e51b8152600401610a1690612f8f565b6116f660016115e2565b600e54600f556012805460ff60381b1916670100000000000000179055565b600a546001600160a01b0316331461173f5760405162461bcd60e51b8152600401610a1690612f8f565b60005b6013548110156117ab57600060146000601384815481106117655761176561308c565b6000918252602080832091909101546001600160a01b031683528201929092526040019020805460ff1916911515919091179055806117a38161319a565b915050611742565b506117b860136000612ab1565b565b6000818152600260205260408120546001600160a01b0316806109e65760405162461bcd60e51b815260206004820152602960248201527f4552433732313a206f776e657220717565727920666f72206e6f6e657869737460448201526832b73a103a37b5b2b760b91b6064820152608401610a16565b600c805461183e90612fc4565b80601f016020809104026020016040519081016040528092919081815260200182805461186a90612fc4565b80156118b75780601f1061188c576101008083540402835291602001916118b7565b820191906000526020600020905b81548152906001019060200180831161189a57829003601f168201915b505050505081565b60006001600160a01b03821661192a5760405162461bcd60e51b815260206004820152602a60248201527f4552433732313a2062616c616e636520717565727920666f7220746865207a65604482015269726f206164647265737360b01b6064820152608401610a16565b506001600160a01b031660009081526003602052604090205490565b600a546001600160a01b031633146119705760405162461bcd60e51b8152600401610a1690612f8f565b6117b86000612398565b601181600c811061198a57600080fd5b60109182820401919006600202915054906101000a900461ffff1681565b606060018054610a5290612fc4565b6115323383836123ea565b600a546001600160a01b031633146119ec5760405162461bcd60e51b8152600401610a1690612f8f565b6119f660006115e2565b600d54600f556012805460ff60381b19169055565b6000826001600160a01b03168260405160006040518083038185875af1925050503d8060008114611a58576040519150601f19603f3d011682016040523d82523d6000602084013e611a5d565b606091505b5050905080610c6e5760405162461bcd60e51b81526020600482015260146024820152732330b4b632b2103a379039b2b7321022ba3432b960611b6044820152606401610a16565b60606000611ab2836118bf565b905060008161ffff1667ffffffffffffffff811115611ad357611ad3612deb565b604051908082528060200260200182016040528015611afc578160200160208202803683370190505b50905060005b8261ffff168161ffff161015611b5b57611b20858261ffff16610eea565b828261ffff1681518110611b3657611b3661308c565b61ffff9092166020928302919091019091015280611b5381613119565b915050611b02565b509392505050565b600060105460ff90811690831610611bd05760405162461bcd60e51b815260206004820152602a60248201527f54797065204944206d757374206265206265747765656e203020616e6420313160448201526920696e636c757369766560b01b6064820152608401610a16565b600060118360ff16600c8110611be857611be861308c565b601091828204019190066002029054906101000a900461ffff16601060019054906101000a900461ffff16611c1d91906131b5565b61ffff1611611c7d5760405162461bcd60e51b815260206004820152602660248201527f4e6f206d6f7265206e667420746f206265206d696e74656420666f722074686960448201526573207479706560d01b6064820152608401610a16565b6109e660118360ff16600c8110611c9657611c9661308c565b601091828204019190066002029054906101000a900461ffff16601060019054906101000a900461ffff16611ccb91906131b5565b612316565b600a546001600160a01b03163314611cfa5760405162461bcd60e51b8152600401610a1690612f8f565b6001600160a01b03166000908152601460205260409020805460ff19169055565b611d253383612081565b611d415760405162461bcd60e51b8152600401610a1690612fff565b611d4d848484846124b9565b50505050565b60138181548110610ec557600080fd5b6060611d6e82611ff6565b611d8a5760405162461bcd60e51b8152600401610a16906131d8565b6000611d946124ec565b90506000815111611db45760405180602001604052806000815250611ddf565b80611dbe846124fb565b604051602001611dcf929190613227565b6040516020818303038152906040525b9392505050565b6060611df182611ff6565b8015611e03575060125461ffff168211155b611e1f5760405162461bcd60e51b8152600401610a16906131d8565b6000611e296124ec565b90506000815111611e495760405180602001604052806000815250611ddf565b80611e53846124fb565b604051602001611dcf92919061324d565b600a546001600160a01b03163314611e8e5760405162461bcd60e51b8152600401610a1690612f8f565b60005b81811015610c6e57611ec3838383818110611eae57611eae61308c565b90506020020160208101906105b89190612cb5565b80611ecd8161319a565b915050611e91565b600a546001600160a01b03163314611eff5760405162461bcd60e51b8152600401610a1690612f8f565b6001600160a01b038116611f645760405162461bcd60e51b815260206004820152602660248201527f4f776e61626c653a206e6577206f776e657220697320746865207a65726f206160448201526564647265737360d01b6064820152608401610a16565b611f6d81612398565b50565b600a546001600160a01b03163314611f9a5760405162461bcd60e51b8152600401610a1690612f8f565b610c6e600b8383612acf565b60006001600160e01b031982166380ac58cd60e01b1480611fd757506001600160e01b03198216635b5e139f60e01b145b806109e657506301ffc9a760e01b6001600160e01b03198316146109e6565b6000908152600260205260409020546001600160a01b0316151590565b600081815260046020526040902080546001600160a01b0319166001600160a01b0384169081179091558190612048826117ba565b6001600160a01b03167f8c5be1e5ebec7d5bd14f71427d1e84f3dd0314c0f7b2291e5b200ac8c7c3b92560405160405180910390a45050565b600061208c82611ff6565b6120ed5760405162461bcd60e51b815260206004820152602c60248201527f4552433732313a206f70657261746f7220717565727920666f72206e6f6e657860448201526b34b9ba32b73a103a37b5b2b760a11b6064820152608401610a16565b60006120f8836117ba565b9050806001600160a01b0316846001600160a01b031614806121335750836001600160a01b031661212884610ad5565b6001600160a01b0316145b8061216357506001600160a01b0380821660009081526005602090815260408083209388168352929052205460ff165b949350505050565b826001600160a01b031661217e826117ba565b6001600160a01b0316146121e65760405162461bcd60e51b815260206004820152602960248201527f4552433732313a207472616e73666572206f6620746f6b656e2074686174206960448201526839903737ba1037bbb760b91b6064820152608401610a16565b6001600160a01b0382166122485760405162461bcd60e51b8152602060048201526024808201527f4552433732313a207472616e7366657220746f20746865207a65726f206164646044820152637265737360e01b6064820152608401610a16565b6122538383836125f9565b61225e600082612013565b6001600160a01b038316600090815260036020526040812080546001929061228790849061328c565b90915550506001600160a01b03821660009081526003602052604081208054600192906122b59084906132a3565b909155505060008181526002602052604080822080546001600160a01b0319166001600160a01b0386811691821790925591518493918716917fddf252ad1be2c89b69c2b068fc378daa952ba7f163c4a11628f55a4df523b3ef91a4505050565b60008161ffff1642443361232960085490565b6040805160208101959095528401929092526bffffffffffffffffffffffff19606091821b169083015260748201526094016040516020818303038152906040528051906020012060001c6109e691906132bb565b6115328282604051806020016040528060008152506126b1565b600a80546001600160a01b038381166001600160a01b0319831681179093556040519116919082907f8be0079c531659141344cd1fd0a4f28419497f9722a3daafe3b4186f6b6457e090600090a35050565b816001600160a01b0316836001600160a01b0316141561244c5760405162461bcd60e51b815260206004820152601960248201527f4552433732313a20617070726f766520746f2063616c6c6572000000000000006044820152606401610a16565b6001600160a01b03838116600081815260056020908152604080832094871680845294825291829020805460ff191686151590811790915591519182527f17307eab39ab6107e8899845ad3d59bd9653f200f220920489ca2b5937696c31910160405180910390a3505050565b6124c484848461216b565b6124d0848484846126e4565b611d4d5760405162461bcd60e51b8152600401610a16906132cf565b6060600c8054610a5290612fc4565b60608161251f5750506040805180820190915260018152600360fc1b602082015290565b8160005b811561254957806125338161319a565b91506125429050600a83613186565b9150612523565b60008167ffffffffffffffff81111561256457612564612deb565b6040519080825280601f01601f19166020018201604052801561258e576020820181803683370190505b5090505b8415612163576125a360018361328c565b91506125b0600a866132bb565b6125bb9060306132a3565b60f81b8183815181106125d0576125d061308c565b60200101906001600160f81b031916908160001a9053506125f2600a86613186565b9450612592565b6001600160a01b0383166126545761264f81600880546000838152600960205260408120829055600182018355919091527ff3f7a9fe364faab93b216da50a3214154f22a0a2b415b23a84c8169e8b636ee30155565b612677565b816001600160a01b0316836001600160a01b0316146126775761267783826127e2565b6001600160a01b03821661268e57610c6e8161287f565b826001600160a01b0316826001600160a01b031614610c6e57610c6e828261292e565b6126bb8383612972565b6126c860008484846126e4565b610c6e5760405162461bcd60e51b8152600401610a16906132cf565b60006001600160a01b0384163b156127d757604051630a85bd0160e11b81526001600160a01b0385169063150b7a0290612728903390899088908890600401613321565b6020604051808303816000875af1925050508015612763575060408051601f3d908101601f191682019092526127609181019061335e565b60015b6127bd573d808015612791576040519150601f19603f3d011682016040523d82523d6000602084013e612796565b606091505b5080516127b55760405162461bcd60e51b8152600401610a16906132cf565b805181602001fd5b6001600160e01b031916630a85bd0160e11b149050612163565b506001949350505050565b600060016127ef846118bf565b6127f9919061328c565b60008381526007602052604090205490915080821461284c576001600160a01b03841660009081526006602090815260408083208584528252808320548484528184208190558352600790915290208190555b5060009182526007602090815260408084208490556001600160a01b039094168352600681528383209183525290812055565b6008546000906128919060019061328c565b600083815260096020526040812054600880549394509092849081106128b9576128b961308c565b9060005260206000200154905080600883815481106128da576128da61308c565b60009182526020808320909101929092558281526009909152604080822084905585825281205560088054806129125761291261337b565b6001900381819060005260206000200160009055905550505050565b6000612939836118bf565b6001600160a01b039093166000908152600660209081526040808320868452825280832085905593825260079052919091209190915550565b6001600160a01b0382166129c85760405162461bcd60e51b815260206004820181905260248201527f4552433732313a206d696e7420746f20746865207a65726f20616464726573736044820152606401610a16565b6129d181611ff6565b15612a1e5760405162461bcd60e51b815260206004820152601c60248201527f4552433732313a20746f6b656e20616c7265616479206d696e746564000000006044820152606401610a16565b612a2a600083836125f9565b6001600160a01b0382166000908152600360205260408120805460019290612a539084906132a3565b909155505060008181526002602052604080822080546001600160a01b0319166001600160a01b03861690811790915590518392907fddf252ad1be2c89b69c2b068fc378daa952ba7f163c4a11628f55a4df523b3ef908290a45050565b5080546000825590600052602060002090810190611f6d9190612b32565b828054828255906000526020600020908101928215612b22579160200282015b82811115612b225781546001600160a01b0319166001600160a01b03843516178255602090920191600190910190612aef565b50612b2e929150612b32565b5090565b5b80821115612b2e5760008155600101612b33565b6001600160e01b031981168114611f6d57600080fd5b600060208284031215612b6f57600080fd5b8135611ddf81612b47565b80358015158114612b8a57600080fd5b919050565b600060208284031215612ba157600080fd5b611ddf82612b7a565b60005b83811015612bc5578181015183820152602001612bad565b83811115611d4d5750506000910152565b60008151808452612bee816020860160208601612baa565b601f01601f19169290920160200192915050565b602081526000611ddf6020830184612bd6565b600060208284031215612c2757600080fd5b5035919050565b6001600160a01b0381168114611f6d57600080fd5b60008060408385031215612c5657600080fd5b8235612c6181612c2e565b946020939093013593505050565b803560ff81168114612b8a57600080fd5b60008060408385031215612c9357600080fd5b8235612c9e81612c2e565b9150612cac60208401612c6f565b90509250929050565b600060208284031215612cc757600080fd5b8135611ddf81612c2e565b600080600060608486031215612ce757600080fd5b8335612cf281612c2e565b92506020840135612d0281612c2e565b929592945050506040919091013590565b803561ffff81168114612b8a57600080fd5b600060208284031215612d3757600080fd5b611ddf82612d13565b60008060408385031215612d5357600080fd5b612c9e83612d13565b60008060408385031215612d6f57600080fd5b8235612d7a81612c2e565b9150612cac60208401612b7a565b6020808252825182820181905260009190848201906040850190845b81811015612dc457835161ffff1683529284019291840191600101612da4565b50909695505050505050565b600060208284031215612de257600080fd5b611ddf82612c6f565b634e487b7160e01b600052604160045260246000fd5b60008060008060808587031215612e1757600080fd5b8435612e2281612c2e565b93506020850135612e3281612c2e565b925060408501359150606085013567ffffffffffffffff80821115612e5657600080fd5b818701915087601f830112612e6a57600080fd5b813581811115612e7c57612e7c612deb565b604051601f8201601f19908116603f01168101908382118183101715612ea457612ea4612deb565b816040528281528a6020848701011115612ebd57600080fd5b82602086016020830137600060208483010152809550505050505092959194509250565b60008060408385031215612ef457600080fd5b8235612eff81612c2e565b91506020830135612f0f81612c2e565b809150509250929050565b60008060208385031215612f2d57600080fd5b823567ffffffffffffffff80821115612f4557600080fd5b818501915085601f830112612f5957600080fd5b813581811115612f6857600080fd5b8660208260051b8501011115612f7d57600080fd5b60209290920196919550909350505050565b6020808252818101527f4f776e61626c653a2063616c6c6572206973206e6f7420746865206f776e6572604082015260600190565b600181811c90821680612fd857607f821691505b60208210811415612ff957634e487b7160e01b600052602260045260246000fd5b50919050565b60208082526031908201527f4552433732313a207472616e736665722063616c6c6572206973206e6f74206f6040820152701ddb995c881b9bdc88185c1c1c9bdd9959607a1b606082015260800190565b634e487b7160e01b600052601160045260246000fd5b600061ffff80831681851680830382111561308357613083613050565b01949350505050565b634e487b7160e01b600052603260045260246000fd5b600060ff821660ff8114156130b9576130b9613050565b60010192915050565b634e487b7160e01b600052601260045260246000fd5b600060ff8316806130eb576130eb6130c2565b8060ff84160691505092915050565b600081600019048311821515161561311457613114613050565b500290565b600061ffff8083168181141561313157613131613050565b6001019392505050565b600061ffff8083168185168183048111821515161561315c5761315c613050565b02949350505050565b600061ffff8084168061317a5761317a6130c2565b92169190910692915050565b600082613195576131956130c2565b500490565b60006000198214156131ae576131ae613050565b5060010190565b600061ffff838116908316818110156131d0576131d0613050565b039392505050565b6020808252602f908201527f4552433732314d657461646174613a2055524920717565727920666f72206e6f60408201526e3732bc34b9ba32b73a103a37b5b2b760891b606082015260800190565b60008351613239818460208801612baa565b835190830190613083818360208801612baa565b6000835161325f818460208801612baa565b835190830190613273818360208801612baa565b64173539b7b760d91b9101908152600501949350505050565b60008282101561329e5761329e613050565b500390565b600082198211156132b6576132b6613050565b500190565b6000826132ca576132ca6130c2565b500690565b60208082526032908201527f4552433732313a207472616e7366657220746f206e6f6e20455243373231526560408201527131b2b4bb32b91034b6b83632b6b2b73a32b960711b606082015260800190565b6001600160a01b038581168252841660208201526040810183905260806060820181905260009061335490830184612bd6565b9695505050505050565b60006020828403121561337057600080fd5b8151611ddf81612b47565b634e487b7160e01b600052603160045260246000fdfea2646970667358221220614b6ab06e6fae1dc505b82e13c8901f4c44f977b6201490cb1a01e27e9dd0b264736f6c634300080a0033",
  "immutableReferences": {},
  "source": "pragma solidity >=0.8.0 <0.9.0;\r\n\r\nimport \"@openzeppelin/contracts/token/ERC721/extensions/ERC721Enumerable.sol\";\r\nimport \"@openzeppelin/contracts/access/Ownable.sol\";\r\n\r\n/// @custom:security-contact mario@kentra.media\r\ncontract NFT is ERC721Enumerable, Ownable {\r\n    using Strings for uint256;\r\n\r\n    // Company & Developers, used for equal part withdrawal\r\n    address[] public teamAddresses;\r\n\r\n    // Settings for IPFS Files, ipfs://<ipfs-folder-identifier>\r\n    string public baseURI;\r\n\r\n    uint256 private mainSaleCost = 0.05 ether;\r\n    uint256 private presaleCost = 0.04 ether;\r\n    uint256 public cost = presaleCost;\r\n\r\n    /* Number of different NFT types, and number of NFTs per Type */\r\n    uint8 public nTypes = 12;\r\n    /*\r\n     * Always set this to \"MAX_SUPPLY + 1\", this allows to use a more\r\n     * effcient counter and have lower gas fees.\r\n     */\r\n    uint16 public maxSupplyPerType = 1000;\r\n    uint16 public initialSupplyPerType = 0;\r\n    /* Initial number of minted NFTs per Type */\r\n    uint16[12] public currentSupplyPerType = [\r\n    maxSupplyPerType,\r\n    maxSupplyPerType,\r\n    maxSupplyPerType,\r\n    maxSupplyPerType,\r\n    maxSupplyPerType,\r\n    maxSupplyPerType,\r\n    maxSupplyPerType,\r\n    maxSupplyPerType,\r\n    maxSupplyPerType,\r\n    maxSupplyPerType,\r\n    maxSupplyPerType,\r\n    maxSupplyPerType\r\n    ];\r\n\r\n    /*\r\n     * Always set this to \"MAX_SUPPLY + 1\", this allows to use a more\r\n     * effcient counter and have lower gas fees.\r\n     */\r\n    uint16 public maxSupply = maxSupplyPerType * nTypes;\r\n\r\n    /* Track allowed NFTs minted per wallet */\r\n    uint16 public maxMintAmount = 20;\r\n    uint16 public nftPerAddressLimit = 3;\r\n\r\n    /* Presale activity control */\r\n    uint8 public presaleLimit = 10;\r\n    bool private preSaleActive = true;\r\n    /* Only whitelisted flag for */\r\n    bool public onlyWhitelist = true;\r\n\r\n    /* Pause in case of issues */\r\n    bool public paused = false;\r\n\r\n    address[] public whitelistedAddresses;\r\n\r\n    mapping(address => bool) private isWhitelisted;\r\n    mapping(address => uint16) public addressMintedBalance;\r\n    mapping(address => mapping(uint8 => uint16)) public addressMintedBalanceByType;\r\n\r\n    constructor(\r\n        string memory _name,\r\n        string memory _symbol,\r\n        string memory _initBaseURI,\r\n        address[] memory _teamAddresses\r\n    ) ERC721(_name, _symbol) {\r\n        baseURI = _initBaseURI;\r\n        teamAddresses = _teamAddresses;\r\n\r\n        for (uint8 i = 0; i < nTypes; i++) {\r\n            currentSupplyPerType[i] = initialSupplyPerType;\r\n        }\r\n    }\r\n\r\n    // internal\r\n    function _baseURI() internal view virtual override returns (string memory) {\r\n        return baseURI;\r\n    }\r\n\r\n    function random(uint16 range) internal view returns (uint16) {\r\n        return\r\n        uint16(\r\n            (uint256(\r\n            keccak256(abi.encodePacked(block.timestamp, block.difficulty, msg.sender, totalSupply()))\r\n        ) % (range))\r\n        );\r\n    }\r\n\r\n    function getRandom(uint16 range) public view returns (uint16) {\r\n        return random(range);\r\n    }\r\n\r\n    function getRandomOfType(uint8 _type) public view returns (uint16) {\r\n        require(0 <= _type, \"Type ID must be between 0 and 11 inclusive\");\r\n        require(_type < nTypes, \"Type ID must be between 0 and 11 inclusive\");\r\n        require(\r\n            maxSupplyPerType - currentSupplyPerType[_type] > 0,\r\n            \"No more nft to be minted for this type\"\r\n        );\r\n\r\n        return random(maxSupplyPerType - currentSupplyPerType[_type]);\r\n    }\r\n\r\n    // public\r\n    function mintType(uint16 _mintAmount, uint8 _type) public payable {\r\n        require(!paused, \"the contract is paused\");\r\n\r\n        // restrictions over all\r\n        uint16 supply = uint16(totalSupply());\r\n        require(_mintAmount > 0, \"need to mint at least 1 NFT\");\r\n        require(_mintAmount <= maxMintAmount, \"max session mint amount exceeded\");\r\n        require(supply + _mintAmount <= maxSupply, \"max NFT limit exceeded\");\r\n\r\n        // restriction of type\r\n        require(0 <= _type, \"Type ID is 0-11 inclusive\");\r\n        require(_type < nTypes, \"Type ID is 0-11 inclusive\");\r\n        require(\r\n            currentSupplyPerType[_type] + _mintAmount <= maxSupplyPerType,\r\n            \"max NFT for this type exceeded\"\r\n        );\r\n\r\n        // TODO: THIS CAN BE REMOVED IN MAINSALE.\r\n        if (msg.sender != owner()) {\r\n            if (onlyWhitelist == true) {\r\n                require(isWhitelisted[msg.sender], \"user is not whitelisted\");\r\n                uint16 senderMintedCount = addressMintedBalance[msg.sender];\r\n                require(\r\n                    senderMintedCount + _mintAmount <= nftPerAddressLimit,\r\n                    \"max NFT per address exceeded\"\r\n                );\r\n            }\r\n            require(msg.value >= cost * _mintAmount, \"insufficient funds\");\r\n        }\r\n\r\n        uint16 typetokenId = 0;\r\n        uint16 fullTokenId = 0;\r\n\r\n        for (uint16 i = 1; i <= _mintAmount; i++) {\r\n            typetokenId = getRandomOfType(_type);\r\n            addressMintedBalance[msg.sender]++;\r\n            currentSupplyPerType[_type]++;\r\n            fullTokenId = (_type * maxSupplyPerType) + typetokenId;\r\n            while (_exists(fullTokenId)) {\r\n                typetokenId++;\r\n                fullTokenId = (_type * maxSupplyPerType) + (typetokenId % maxSupplyPerType);\r\n            }\r\n            _safeMint(msg.sender, fullTokenId);\r\n        }\r\n    }\r\n\r\n    // TODO: should we have random types? or minting always with defined types?\r\n    // public\r\n    function mint(uint16 _mintAmount) public payable {\r\n        require(!paused, \"the contract is paused\");\r\n        uint16 supply = uint16(totalSupply());\r\n        require(_mintAmount > 0, \"need to mint at least 1 NFT\");\r\n        require(_mintAmount <= maxMintAmount, \"max mint amount per session exceeded\");\r\n        require(supply + _mintAmount <= maxSupply, \"max NFT limit exceeded\");\r\n\r\n        uint8 _ntype = uint8(random(nTypes));\r\n\r\n        // TODO: Should minted tokens be of same random type, or all be of different random types?\r\n        while (currentSupplyPerType[_ntype] + _mintAmount > maxSupplyPerType) {\r\n            // TODO: check for endless loop.\r\n            _ntype++;\r\n            _ntype %= nTypes;\r\n        }\r\n\r\n        mintType(_mintAmount, _ntype);\r\n    }\r\n\r\n    function resumePresale() public onlyOwner {\r\n        restrictToWhitelisted(true);\r\n        cost = presaleCost;\r\n        preSaleActive = true;\r\n    }\r\n\r\n    function startMainsale() public onlyOwner {\r\n        restrictToWhitelisted(false);\r\n        cost = mainSaleCost;\r\n        preSaleActive = false;\r\n    }\r\n\r\n    function pause(bool _state) public onlyOwner {\r\n        paused = _state;\r\n    }\r\n\r\n    function tokenURIByID(uint256 tokenId) public view returns (string memory) {\r\n        require(\r\n            _exists(tokenId) && tokenId <= maxSupply,\r\n            \"ERC721Metadata: URI query for nonexistent token\"\r\n        );\r\n\r\n        string memory currentBaseURI = _baseURI();\r\n\r\n        return\r\n        bytes(currentBaseURI).length > 0\r\n        ? string(abi.encodePacked(currentBaseURI, tokenId.toString(), \".json\"))\r\n        : \"\";\r\n    }\r\n\r\n    /* show tokens owned by address*/\r\n    function walletOfUser(address _user) public view returns (uint16[] memory) {\r\n        uint16 ownerTokenCount = uint16(balanceOf(_user));\r\n        uint16[] memory tokenIds = new uint16[](ownerTokenCount);\r\n        for (uint16 i; i < ownerTokenCount; i++) {\r\n            tokenIds[i] = uint16(tokenOfOwnerByIndex(_user, i));\r\n        }\r\n        return tokenIds;\r\n    }\r\n\r\n    function restrictToWhitelisted(bool _state) public onlyOwner {\r\n        onlyWhitelist = _state;\r\n    }\r\n\r\n    function resetWhitelist() public onlyOwner {\r\n        // go through all whitelisted users and set them to false\r\n        for (uint256 i = 0; i < whitelistedAddresses.length; i++) {\r\n            isWhitelisted[whitelistedAddresses[i]] = false;\r\n        }\r\n        // reset the full list of whitelisted users\r\n        delete whitelistedAddresses;\r\n    }\r\n\r\n    function removeWhitelistedUser(address _user) public onlyOwner {\r\n        // go through all whitelisted users and set them to false\r\n        isWhitelisted[_user] = false;\r\n    }\r\n\r\n    function setTeamAddresses(address[] calldata _teamAddresses) public onlyOwner {\r\n        teamAddresses = _teamAddresses;\r\n    }\r\n\r\n    function whitelistUsers(address[] calldata _users) public onlyOwner {\r\n        for (uint256 i = 0; i < _users.length; i++) {\r\n            whitelistUser(_users[i]);\r\n        }\r\n    }\r\n\r\n    function whitelistUser(address _user) public onlyOwner {\r\n        whitelistedAddresses.push(_user);\r\n        isWhitelisted[_user] = true;\r\n    }\r\n\r\n    function withdraw() public payable onlyOwner {\r\n        // use transfer her instead of send\r\n        uint256 payPerTeam = address(this).balance / teamAddresses.length;\r\n        for (uint256 i = 0; i < teamAddresses.length; i++) {\r\n            transfer(payable(teamAddresses[i]), payPerTeam);\r\n        }\r\n    }\r\n\r\n    // Function to transfer Ether from this contract to address from input\r\n    // https://ethereum.stackexchange.com/questions/19341/address-send-vs-address-transfer-best-practice-usage\r\n    function transfer(address payable _to, uint256 _amount) public {\r\n        // Note that \"to\" is declared as payable\r\n        (bool success, ) = _to.call{ value: _amount }(\"\");\r\n        require(success, \"Failed to send Ether\");\r\n    }\r\n}\r\n",
  "sourcePath": "C:\\Users\\enesa\\demoNFT\\contracts\\NFT.sol",
  "compiler": {
    "name": "solc",
    "version": "0.8.10+commit.fc410830.Emscripten.clang"
  },
  "schemaVersion": "3.4.4",
  "updatedAt": "2022-01-22T14:24:35.727Z",
  "networkType": "ethereum",
  "devdoc": {
    "custom:security-contact": "mario@kentra.media",
    "kind": "dev",
    "methods": {
      "approve(address,uint256)": {
        "details": "See {IERC721-approve}."
      },
      "balanceOf(address)": {
        "details": "See {IERC721-balanceOf}."
      },
      "getApproved(uint256)": {
        "details": "See {IERC721-getApproved}."
      },
      "isApprovedForAll(address,address)": {
        "details": "See {IERC721-isApprovedForAll}."
      },
      "name()": {
        "details": "See {IERC721Metadata-name}."
      },
      "owner()": {
        "details": "Returns the address of the current owner."
      },
      "ownerOf(uint256)": {
        "details": "See {IERC721-ownerOf}."
      },
      "renounceOwnership()": {
        "details": "Leaves the contract without owner. It will not be possible to call `onlyOwner` functions anymore. Can only be called by the current owner. NOTE: Renouncing ownership will leave the contract without an owner, thereby removing any functionality that is only available to the owner."
      },
      "safeTransferFrom(address,address,uint256)": {
        "details": "See {IERC721-safeTransferFrom}."
      },
      "safeTransferFrom(address,address,uint256,bytes)": {
        "details": "See {IERC721-safeTransferFrom}."
      },
      "setApprovalForAll(address,bool)": {
        "details": "See {IERC721-setApprovalForAll}."
      },
      "supportsInterface(bytes4)": {
        "details": "See {IERC165-supportsInterface}."
      },
      "symbol()": {
        "details": "See {IERC721Metadata-symbol}."
      },
      "tokenByIndex(uint256)": {
        "details": "See {IERC721Enumerable-tokenByIndex}."
      },
      "tokenOfOwnerByIndex(address,uint256)": {
        "details": "See {IERC721Enumerable-tokenOfOwnerByIndex}."
      },
      "tokenURI(uint256)": {
        "details": "See {IERC721Metadata-tokenURI}."
      },
      "totalSupply()": {
        "details": "See {IERC721Enumerable-totalSupply}."
      },
      "transferFrom(address,address,uint256)": {
        "details": "See {IERC721-transferFrom}."
      },
      "transferOwnership(address)": {
        "details": "Transfers ownership of the contract to a new account (`newOwner`). Can only be called by the current owner."
      }
    },
    "version": 1
  },
  "userdoc": {
    "kind": "user",
    "methods": {},
    "version": 1
  }
}